{
  "contractName": "Battleship",
  "abi": [
    {
      "anonymous": false,
      "inputs": [
        {
          "indexed": true,
          "internalType": "uint256",
          "name": "_matchID",
          "type": "uint256"
        },
        {
          "indexed": false,
          "internalType": "address",
          "name": "_accused",
          "type": "address"
        },
        {
          "indexed": false,
          "internalType": "address",
          "name": "_accuser",
          "type": "address"
        }
      ],
      "name": "accuse",
      "type": "event"
    },
    {
      "anonymous": false,
      "inputs": [
        {
          "indexed": true,
          "internalType": "uint256",
          "name": "_matchID",
          "type": "uint256"
        },
        {
          "indexed": false,
          "internalType": "address",
          "name": "_attackerAddress",
          "type": "address"
        },
        {
          "indexed": false,
          "internalType": "address",
          "name": "_opponentAddress",
          "type": "address"
        },
        {
          "indexed": false,
          "internalType": "uint256",
          "name": "_attackedRow",
          "type": "uint256"
        },
        {
          "indexed": false,
          "internalType": "uint256",
          "name": "_attackedCol",
          "type": "uint256"
        }
      ],
      "name": "attackPerformed",
      "type": "event"
    },
    {
      "anonymous": false,
      "inputs": [
        {
          "indexed": false,
          "internalType": "uint256",
          "name": "_matchID",
          "type": "uint256"
        },
        {
          "indexed": false,
          "internalType": "uint8",
          "name": "_result",
          "type": "uint8"
        },
        {
          "indexed": false,
          "internalType": "address",
          "name": "_attackerAddress",
          "type": "address"
        }
      ],
      "name": "attackResult",
      "type": "event"
    },
    {
      "anonymous": false,
      "inputs": [
        {
          "indexed": true,
          "internalType": "uint256",
          "name": "_matchID",
          "type": "uint256"
        },
        {
          "indexed": false,
          "internalType": "address",
          "name": "_winnerAddr",
          "type": "address"
        },
        {
          "indexed": false,
          "internalType": "address",
          "name": "_loserAddr",
          "type": "address"
        },
        {
          "indexed": false,
          "internalType": "string",
          "name": "_cause",
          "type": "string"
        }
      ],
      "name": "matchFinished",
      "type": "event"
    },
    {
      "anonymous": false,
      "inputs": [
        {
          "indexed": true,
          "internalType": "uint256",
          "name": "_matchID",
          "type": "uint256"
        },
        {
          "indexed": true,
          "internalType": "address",
          "name": "_playerX",
          "type": "address"
        },
        {
          "indexed": true,
          "internalType": "address",
          "name": "_playerY",
          "type": "address"
        }
      ],
      "name": "matchStarted",
      "type": "event"
    },
    {
      "anonymous": false,
      "inputs": [
        {
          "indexed": true,
          "internalType": "address",
          "name": "_proposer",
          "type": "address"
        },
        {
          "indexed": false,
          "internalType": "uint256",
          "name": "_assignedMatchID",
          "type": "uint256"
        }
      ],
      "name": "newMatchCreated",
      "type": "event"
    },
    {
      "anonymous": false,
      "inputs": [
        {
          "indexed": true,
          "internalType": "address",
          "name": "_playerX",
          "type": "address"
        },
        {
          "indexed": true,
          "internalType": "address",
          "name": "_playerY",
          "type": "address"
        },
        {
          "indexed": false,
          "internalType": "uint256",
          "name": "_stakeTemp",
          "type": "uint256"
        },
        {
          "indexed": true,
          "internalType": "uint256",
          "name": "_matchID",
          "type": "uint256"
        },
        {
          "indexed": false,
          "internalType": "uint256",
          "name": "_boardSize",
          "type": "uint256"
        },
        {
          "indexed": false,
          "internalType": "uint256",
          "name": "_numberOfShips",
          "type": "uint256"
        }
      ],
      "name": "playersJoined",
      "type": "event"
    },
    {
      "anonymous": false,
      "inputs": [
        {
          "indexed": true,
          "internalType": "uint256",
          "name": "_matchID",
          "type": "uint256"
        },
        {
          "indexed": false,
          "internalType": "uint256",
          "name": "_stake",
          "type": "uint256"
        }
      ],
      "name": "stakeAccepted",
      "type": "event"
    },
    {
      "anonymous": false,
      "inputs": [
        {
          "indexed": true,
          "internalType": "uint256",
          "name": "_matchID",
          "type": "uint256"
        },
        {
          "indexed": false,
          "internalType": "uint256",
          "name": "_stake",
          "type": "uint256"
        },
        {
          "indexed": false,
          "internalType": "address",
          "name": "_proposer",
          "type": "address"
        }
      ],
      "name": "stakeProposal",
      "type": "event"
    },
    {
      "anonymous": false,
      "inputs": [
        {
          "indexed": true,
          "internalType": "uint256",
          "name": "_matchID",
          "type": "uint256"
        },
        {
          "indexed": false,
          "internalType": "address",
          "name": "_winnerAddr",
          "type": "address"
        },
        {
          "indexed": false,
          "internalType": "string",
          "name": "_cause",
          "type": "string"
        }
      ],
      "name": "winnerIs",
      "type": "event"
    },
    {
      "inputs": [],
      "name": "currentGames",
      "outputs": [
        {
          "internalType": "uint256",
          "name": "",
          "type": "uint256"
        }
      ],
      "stateMutability": "view",
      "type": "function",
      "constant": true
    },
    {
      "inputs": [
        {
          "internalType": "uint256",
          "name": "",
          "type": "uint256"
        }
      ],
      "name": "gamesArray",
      "outputs": [
        {
          "internalType": "address",
          "name": "playerX",
          "type": "address"
        },
        {
          "internalType": "address",
          "name": "playerY",
          "type": "address"
        },
        {
          "internalType": "bool",
          "name": "joinableMatch",
          "type": "bool"
        },
        {
          "internalType": "bool",
          "name": "startedMatch",
          "type": "bool"
        },
        {
          "internalType": "uint256",
          "name": "boardSize",
          "type": "uint256"
        },
        {
          "internalType": "uint256",
          "name": "stake",
          "type": "uint256"
        },
        {
          "internalType": "address",
          "name": "stakeProposer",
          "type": "address"
        },
        {
          "internalType": "uint256",
          "name": "stakeProposal",
          "type": "uint256"
        },
        {
          "internalType": "bytes32",
          "name": "merkleX",
          "type": "bytes32"
        },
        {
          "internalType": "bytes32",
          "name": "merkleY",
          "type": "bytes32"
        },
        {
          "internalType": "uint256",
          "name": "stakeX",
          "type": "uint256"
        },
        {
          "internalType": "uint256",
          "name": "stakeY",
          "type": "uint256"
        },
        {
          "internalType": "uint256",
          "name": "NumShipsX",
          "type": "uint256"
        },
        {
          "internalType": "uint256",
          "name": "NumShipsY",
          "type": "uint256"
        },
        {
          "internalType": "uint256",
          "name": "fixedShipsNumber",
          "type": "uint256"
        },
        {
          "internalType": "uint256",
          "name": "timeoutForAccusation",
          "type": "uint256"
        },
        {
          "internalType": "address",
          "name": "accusedOpponent",
          "type": "address"
        },
        {
          "internalType": "address",
          "name": "currentPlayerTurn",
          "type": "address"
        }
      ],
      "stateMutability": "view",
      "type": "function",
      "constant": true
    },
    {
      "inputs": [
        {
          "internalType": "uint256",
          "name": "_boardSize",
          "type": "uint256"
        },
        {
          "internalType": "uint256",
          "name": "_numberOfShips",
          "type": "uint256"
        }
      ],
      "name": "createMatch",
      "outputs": [],
      "stateMutability": "nonpayable",
      "type": "function"
    },
    {
      "inputs": [
        {
          "internalType": "uint256",
          "name": "_matchID",
          "type": "uint256"
        }
      ],
      "name": "JoinMatch",
      "outputs": [],
      "stateMutability": "nonpayable",
      "type": "function"
    },
    {
      "inputs": [],
      "name": "JoinRandom",
      "outputs": [],
      "stateMutability": "nonpayable",
      "type": "function"
    },
    {
      "inputs": [
        {
          "internalType": "uint256",
          "name": "_matchID",
          "type": "uint256"
        },
        {
          "internalType": "uint256",
          "name": "_stake",
          "type": "uint256"
        }
      ],
      "name": "proposeStake",
      "outputs": [],
      "stateMutability": "nonpayable",
      "type": "function"
    },
    {
      "inputs": [
        {
          "internalType": "uint256",
          "name": "_matchID",
          "type": "uint256"
        }
      ],
      "name": "acceptStake",
      "outputs": [],
      "stateMutability": "nonpayable",
      "type": "function"
    },
    {
      "inputs": [
        {
          "internalType": "uint256",
          "name": "_matchID",
          "type": "uint256"
        }
      ],
      "name": "payStake",
      "outputs": [],
      "stateMutability": "payable",
      "type": "function",
      "payable": true
    },
    {
      "inputs": [
        {
          "internalType": "uint256",
          "name": "_matchID",
          "type": "uint256"
        },
        {
          "internalType": "uint256",
          "name": "_attackedRow",
          "type": "uint256"
        },
        {
          "internalType": "uint256",
          "name": "_attackedCol",
          "type": "uint256"
        }
      ],
      "name": "attackOpponent",
      "outputs": [],
      "stateMutability": "nonpayable",
      "type": "function"
    },
    {
      "inputs": [
        {
          "internalType": "bytes32",
          "name": "_merkleroot",
          "type": "bytes32"
        },
        {
          "internalType": "uint256",
          "name": "_matchID",
          "type": "uint256"
        }
      ],
      "name": "registerMerkleRoot",
      "outputs": [],
      "stateMutability": "nonpayable",
      "type": "function"
    },
    {
      "inputs": [
        {
          "internalType": "uint256",
          "name": "_matchID",
          "type": "uint256"
        },
        {
          "internalType": "uint8",
          "name": "_attackResult",
          "type": "uint8"
        },
        {
          "internalType": "bytes32",
          "name": "_attackHash",
          "type": "bytes32"
        },
        {
          "internalType": "bytes32[]",
          "name": "merkleProof",
          "type": "bytes32[]"
        }
      ],
      "name": "submitAttackProof",
      "outputs": [],
      "stateMutability": "nonpayable",
      "type": "function"
    },
    {
      "inputs": [
        {
          "internalType": "uint256",
          "name": "_matchID",
          "type": "uint256"
        },
        {
          "internalType": "int256[]",
          "name": "_cells",
          "type": "int256[]"
        }
      ],
      "name": "verifyBoard",
      "outputs": [],
      "stateMutability": "nonpayable",
      "type": "function"
    },
    {
      "inputs": [
        {
          "internalType": "uint256",
          "name": "_matchID",
          "type": "uint256"
        }
      ],
      "name": "accuseOpponent",
      "outputs": [],
      "stateMutability": "nonpayable",
      "type": "function"
    }
  ],
  "bytecode": "0x6080806040523461001b576000600155611b2790816100218239f35b600080fdfe60a0604052600436101561001257600080fd5b60003560e01c80630bb53157146112e45780630e37dcd014611215578063103f0a43146111f757806310b6c044146110ec57806320ed105714610e425780634cf2a68014610d4957806381a4952e14610bfc57806381f8c63714610a0657806399fd5a371461092a578063a74aa8fd146107d8578063c8d99a011461041e578063f28ae7dd146103745763f5a0ea6c146100ab57600080fd5b3461036f576100b9366114d5565b81156103355760405191610240830183811067ffffffffffffffff82111761031f576040523383526000602084015260016040840152600060608401526080830152600060a0830152600060c0830152600060e0830152600061010083015260006101208301526000610140830152600061016083015280610180830152806101a08301526101c082015260006101e08201526000610200820152336102208201526000546801000000000000000081101561031f5780600161017f9201600055611432565b61030957815181546001600160a01b03199081166001600160a01b03928316178355602084015160018085018054604088015160608901516001600160b01b03199092169487169490941793151560a090811b60ff60a01b169490941790151560a81b60ff60a81b161790556080860151600286015590850151600385015560c0850151600485018054841691851691909117905560e085015160058501556101008501516006850155610120850151600785015561014085015160088501556101608501516009850155610180850151600a8501556101a0850151600b8501556101c0850151600c8501556101e0850151600d850155610200850151600e85018054841691851691909117905561022090940151600f93909301805490911692909116919091179055546102b3906114eb565b60015560005460001981019081116102f3576040519081527fadf457f55873a7e8844c9ea4644490ae36488d21a861ce4904f29965673cbedc60203392a2005b634e487b7160e01b600052601160045260246000fd5b634e487b7160e01b600052600060045260246000fd5b634e487b7160e01b600052604160045260246000fd5b60405162461bcd60e51b8152602060048201526012602482015271496e76616c696420626f6172642073697a6560701b6044820152606490fd5b600080fd5b3461036f5760407fc1f1a0bca1381eb89ff25432ca58f1dc161c6511e4b3aa7219cbe78e1b8ccb986103a5366114d5565b6103b560009492945485106114fa565b60046103c085611432565b5080546103e290336001600160a01b039182161490811561040e575b5061165a565b82600582015501336bffffffffffffffffffffffff60a01b8254161790558151908152336020820152a2005b60018401541633149050886103dc565b3461036f57608036600319011261036f5760043560243560ff811680910361036f5760643567ffffffffffffffff811161036f573660238201121561036f57806004013561046b816114bd565b91610479604051938461149b565b81835260209160248385019160051b8301019136831161036f57602401905b8282106107c9575050509060ff916104b360005486106114fa565b6104bc85611432565b50546001600160a01b0394908516331480156107ac575b6104dc9061165a565b6104e586611432565b50600194858092015460a81c161515036107735761050286611432565b50928480604435926000925b610728575b50505061052033856116c6565b90506040518481019182528481526105378161147f565b519020906040518481019182528481526105508161147f565b519020036106ac57838584541691823314928360001461068357507fd45185e1e8bd558a06c76a6ab710e8dad832aaf2b11b302424bbfdec26d3d29c60608884880154165b89604051918c83528589840152166040820152a114610652575b505b600a820154158015610646575b6105c457005b8360a0937f2c0ce981493373d7eec23769b9247eeefda0623bb9184788695c268f3ed638e6958454168033146000146106405750818185015416935b0160ff60a81b19815416905560405192168252339082015260606040820152600e60608201526d4e6f207368697073206c6566742160901b6080820152a2005b93610600565b50600b820154156105be565b1561066e57600a8201610665815461157d565b90555b856105af565b600b820161067c815461157d565b9055610668565b60607fd45185e1e8bd558a06c76a6ab710e8dad832aaf2b11b302424bbfdec26d3d29c91610595565b50847f2c0ce981493373d7eec23769b9247eeefda0623bb9184788695c268f3ed638e660a0866106dc33876116f7565b88889392930160ff60a81b198154169055816040519316835216858201526060604082015260116060820152706e6f742076616c69642061747461636b2160781b6080820152a26105b1565b909192815184101561076a5761076290610742858461169c565b51186040518781019182528781526107598161147f565b519020936114eb565b91908161050e565b92829150610513565b60405162461bcd60e51b815260048101839052601160248201527013585d18da081b9bdd081cdd185c9d1959607a1b6044820152606490fd5b506104dc6107b987611432565b50600101548616331490506104d3565b81358152908301908301610498565b3461036f57606036600319011261036f576004356107f960005482106114fa565b61080281611432565b50546001600160a01b039081163314801561090d575b6108219061165a565b61082a82611432565b50600f81019283549033848316036108c8577f9860e98f566305ef71ccf4b3b79d016d70c920b855d26e0c92e7102ea44949ca608085600e8601956bffffffffffffffffffffffff60a01b968781541690556000600d820155818154163381146000146108bf57506001015416955b60405196338852169586602082015260243560408201526044356060820152a216179055005b91505095610899565b60405162461bcd60e51b815260206004820152601760248201527f4e6f7420796f7572207475726e20746f2061747461636b0000000000000000006044820152606490fd5b5061082161091a83611432565b5060010154821633149050610818565b3461036f57604036600319011261036f5760043560243567ffffffffffffffff811161036f573660238201121561036f578060040135610969816114bd565b91610977604051938461149b565b81835260209160248385019160051b8301019136831161036f57602401905b8282106109f7576109dc85876109af60005482106114fa565b6109d76109bb82611432565b5054336001600160a01b03918216149081156109de575061165a565b611720565b005b90506109e983611432565b5060010154163314856103dc565b81358152908301908301610996565b3461036f57602036600319011261036f57600435610a2760005482106114fa565b610a3081611432565b50610a3e6001541515611539565b80546001600160a01b039081168015610bb7576001830191825491818316610b725760ff8360a01c1615610b38573314610af3577f7172203a6174cc3699ee36aa30f13a238141f6b3a5006971ae04c5cd733b9ca99133906affffffffffffffffffffff60a81b16178355610ab460015461157d565b60015580845416925416926005810154610aee600a6002840154930154604051938493846040919493926060820195825260208201520152565b0390a4005b60405162461bcd60e51b815260206004820152601d60248201527f596f752061726520616c726561647920696e2074686973206d617463680000006044820152606490fd5b60405162461bcd60e51b81526020600482015260126024820152714d61746368206e6f74206a6f696e61626c6560701b6044820152606490fd5b60405162461bcd60e51b815260206004820152601b60248201527f426f746820706c617965727320616c7265616479206a6f696e656400000000006044820152606490fd5b60405162461bcd60e51b815260206004820152601760248201527f4e6f20706c6179657220696e2074686973206d617463680000000000000000006044820152606490fd5b3461036f57602036600319011261036f57600435610c1d60005482106114fa565b610c2681611432565b50546001600160a01b0390811633148015610d2c575b610c459061165a565b6005610c5083611432565b50015415610ce757610c6182611432565b5090339060048301541614610ca957602060038260057fccb4477248b42de3f8dc0e70b3dd8f156cb72af7bc5c56e3cadf164ec74995139401549182910155604051908152a2005b60405162461bcd60e51b815260206004820152601660248201527549742720796f7572207374616b652c206e697362612160501b6044820152606490fd5b60405162461bcd60e51b815260206004820152601760248201527f54656d706f72617279207374616b65206e6f74207365740000000000000000006044820152606490fd5b50610c45610d3983611432565b5060010154821633149050610c3c565b3461036f57604036600319011261036f5760043560243590610d6e60005483106114fa565b610d7782611432565b50546001600160a01b0390811633148015610e25575b610d969061165a565b610d9f83611432565b5091818354163314600014610e1b5760068301555b6007820154151580610e0e575b610dc757005b60018201805460ff60a81b198116600160a81b179091559154918116929116907f6d3823f34c0a4bdf153f07ff328591149ec0ff57e31bd856adbecec9a8f85f88600080a4005b5060068201541515610dc1565b6007830155610db4565b50610d96610e3284611432565b5060010154821633149050610d8d565b3461036f57602036600319011261036f57600435610e6360005482106114fa565b610e6c81611432565b50546001600160a01b0391908216331480156110cf575b610e8c9061165a565b610e9581611432565b50600e01548216331461107e57610eab81611432565b506000806001830191858354163381146000146110795750858454165b600d850180541561100a57544310610fbc57505050600e820154905484169084168103610fb6575082815416915b600190600080516020611ad283398151915260a0604051878716815260406020820152602460408201527f41464b2074696d656f757420726561636865643a206d617463682066696e69736060820152636865642160e01b6080820152a25b80610fab575b610f6157005b60030154908160011b91808304600214901517156102f35760009283928392839283918315610fa1575b1690f115610f9557005b6040513d6000823e3d90fd5b6108fc9250610f8b565b508282161515610f5b565b91610ef6565b604080516001600160a01b039092168252336020830152929591935090917f430a6c3131efbea3d1696f1750f47c91d74f04c725253660006f1792aa360af29190819081015b0390a2610f55565b9091935060059592954301918243116102f357919055600e840180546001600160a01b031916828816179055604080516001600160a01b0390921682523360208301527f430a6c3131efbea3d1696f1750f47c91d74f04c725253660006f1792aa360af2919081908101611002565b610ec8565b60405162461bcd60e51b815260206004820152602360248201527f696d706f737369626c6520746f20616363757365206f70706f6e656e7420616760448201526230b4b760e91b6064820152608490fd5b50610e8c6110dc82611432565b5060010154831633149050610e83565b3461036f57600036600319011261036f57600154156111bf5761110d611597565b61111a6000548210611539565b61112381611432565b5080546001600160a01b03908116331461118257600182810180546001600160a81b0319163360ff60a01b1916178155905490917f7172203a6174cc3699ee36aa30f13a238141f6b3a5006971ae04c5cd733b9ca991610ab49061157d565b60405162461bcd60e51b81526020600482015260156024820152740b2deea40c2e4ca40d2dc40e8d0d2e640dac2e8c6d605b1b6044820152606490fd5b60405162461bcd60e51b815260206004820152601060248201526f139bc81b585d18da195cc8199bdd5b9960821b6044820152606490fd5b3461036f57600036600319011261036f576020600154604051908152f35b602036600319011261036f5760043561123160005482106114fa565b61123a81611432565b50546001600160a01b03908116331480156112c7575b6112599061165a565b34156112985761126882611432565b505416330361128d5761127c600891611432565b500161128934825461158a565b9055005b61127c600991611432565b60405162461bcd60e51b81526020600482015260076024820152666e6f207761792160c81b6044820152606490fd5b506112596112d483611432565b5060010154821633149050611250565b3461036f57602036600319011261036f5760043560005481101561036f5761130b90611432565b5060018060a01b0381541690808080808080808080806001810154600282015460ff600384015492600d600c600b600a600960086007600660058d600460018060a01b03910154169d01549d01549d01549d01549d01549d01549d01549d01549d01549d600e60018060a01b03910154169e600f60018060a01b03910154169f604051806080525260018060a01b03811660206080510152818160a01c1615156040608051015260a81c1615156060608051015260808051015260a0608051015260c0608051015260e06080510152610100608051015261012060805101526101406080510152610160608051015261018060805101526101a060805101526101c060805101526101e0608051015261020060805101526102206080510152610240608051f35b90600091825481101561146b5782805260041b7f290decd9548b62a8d60345a988386fc84ba6bc95484008f6362f93160ef3e563019190565b634e487b7160e01b83526032600452602483fd5b6040810190811067ffffffffffffffff82111761031f57604052565b90601f8019910116810190811067ffffffffffffffff82111761031f57604052565b67ffffffffffffffff811161031f5760051b60200190565b604090600319011261036f576004359060243590565b60001981146102f35760010190565b1561150157565b60405162461bcd60e51b815260206004820152601060248201526f125b9d985b1a59081b585d18da08125160821b6044820152606490fd5b1561154057565b60405162461bcd60e51b81526020600482015260156024820152744e6f20617661696c61626c65206d6174636865732160581b6044820152606490fd5b80156102f3576000190190565b919082018092116102f357565b604051602081019043408252426040820152486060820152606081526080810181811067ffffffffffffffff82111761031f57604052519020600190815490811561164457068181018091116102f3576000918254925b8381106115fb5750505090565b60ff8261160783611432565b50015460a01c16611621575b61161c906114eb565b6115ee565b9181811461163d5761163561161c9161157d565b929050611613565b5050905090565b634e487b7160e01b600052601260045260246000fd5b1561166157565b60405162461bcd60e51b81526020600482015260136024820152722ab730baba3437b934bd32b210383630bcb2b960691b6044820152606490fd5b80518210156116b05760209160051b010190565b634e487b7160e01b600052603260045260246000fd5b80549092916001600160a01b039081169116036116ea576006600a83015492015490565b6007600b83015492015490565b80546001600160a01b03908116939290916001918316850361171a570154169190565b01541690565b919061172b83611432565b509160009360018060a01b038085541680331496878098611a70575b8015611a54575b15611a1b57508615611a0f57805b9615611a0a5750806001860154165b9560028601548551818002918083048114901517156102f3570361199857600096875b86518110156117ce5760016117a3828961169c565b5112156117b9575b6117b4906114eb565b61178e565b976117c66117b4916114eb565b9890506117ab565b509295600c919497929550015411611924575082600080516020611ad283398151915260808460405194169384815260406020820152602060408201527f455448207472616e7366657272656420746f20796f7572206163636f756e74216060820152a261183b83611432565b50916003830154928360011b93808504600214901517156102f35780828092541680851460001461191c575060010154165b600080808087819781159889611913575bf115610f95576000938493849384938492611909575b1690f115610f95576118a590611432565b61030957600f81600080935582600182015582600282015582600382015582600482015582600582015582600682015582600782015582600882015582600982015582600a82015582600b82015582600c82015582600d82015582600e8201550155565b6108fc9250611894565b506108fc61187e565b91505061186d565b905082600080516020611ad283398151915260a06119969594604051908516815260406020820152602e60408201527f4f70706f6e656e74206465636c61726564206120646966666572656e74206e7560608201526d6d626572206f662073686970732160901b6080820152a2611a7c565b565b50611996945081935060a0600080516020611ad283398151915291604097949751908516815260406020820152602960408201527f4f70706f6e656e74206465636c61726564206120646966666572656e7420626f6060820152686172642073697a652160b81b6080820152a2611a7c565b61176b565b8160018701541661175c565b60405162461bcd60e51b81526020600482015260116024820152704572726f723a206e6f2077696e6e65722160781b6044820152606490fd5b50826001880154163314801561174e5750600a8701541561174e565b50600b87015415611747565b6003611a8783611432565b500154908160011b91808304600214901517156102f3576000808093819382908215611ac7575b6001600160a01b031690f115610f95576118a590611432565b6108fc9150611aae56fe226d804248e4cfd79c61debb562f2416718108ae633cab58512b64ed903c8e86a2646970667358221220408c2f687da2c4de6c0afe32ae91262a64eb45987784a3a91425a724edb989dd64736f6c63430008130033",
  "immutableReferences": {},
  "source": "// SPDX-License-Identifier: MIT\npragma solidity >=0.4.22 < 0.9.0; //okk version\n\n\n\n\n\n// define the contract\ncontract Battleship {\n\n\n    // Struct to represent a match \n    struct Battle {\n        address playerX;             // Address of player A\n        address playerY;             // Address of player B\n        bool joinableMatch;          // Indicates whether the match is joinable\n        bool startedMatch;           // Indicates whether the match has started\n        uint boardSize;              // Size of the board\n        uint stake;                  // Decided amount of the stake for the match\n        address stakeProposer;      // Address of the player who proposed the stake\n        uint stakeProposal;          // Proposed stake amount\n        bytes32 merkleX;       // Merkle root for player A's data\n        bytes32 merkleY;       // Merkle root for player B's data\n        uint stakeX;             // Amount of Ether staked by player A\n        uint stakeY;             // Amount of Ether staked by player B\n        uint NumShipsX;        // Number of ships owned by player A at each turn\n        uint NumShipsY;        // Number of ships owned by player B at each turn\n        uint fixedShipsNumber;       // Number of ships in the match\n        uint timeoutForAccusation;   // Timeout period for making an accusation\n        address accusedOpponent;     // Address of the accused opponent\n        address currentPlayerTurn;   // Address of the player whose turn it is\n    }\n\n\n    // Array of matches\n    Battle[] public gamesArray;\n\n    // Counter for active matches\n    uint public currentGames = 0;\n\n\n    // ensure the match ID is valid\n    modifier checkValidityIdMatch(uint _matchID) {\n        require(_matchID < gamesArray.length, \"Invalid match ID\");\n        _;\n    }\n    // ensure the sender is one of the players in a specific match\n    modifier onlyPlayer(uint _matchID) {\n        require(gamesArray[_matchID].playerX == msg.sender || gamesArray[_matchID].playerY == msg.sender, \"Unauthorized player\");\n        _;\n    }\n     // ensure both players have provided their merkle roots, indicating match start\n    modifier merkleRootProvided(uint _matchID) {\n        require(gamesArray[_matchID].startedMatch == true, \"Match not started\");\n        _;\n    }\n    // ensure the provided board size is valid \n    modifier validSize(uint _size) {\n        require(_size > 0, \"Invalid board size\");\n        _;\n    }\n    // ensure the temporary stake for the specified match has been set\n    modifier stakeVariable(uint _matchID) {\n        require(gamesArray[_matchID].stakeProposal > 0, \"Temporary stake not set\");\n        _;\n    }\n    modifier isnotAccused(uint _matchID) {\n        // Ensure the sender is not the accused opponent in the specified match\n        require(gamesArray[_matchID].accusedOpponent != msg.sender, \"impossible to accuse opponent again\");\n        _;\n    }\n\n   \n\n    // EVENTS\n    // players have joined the match\n    event playersJoined(address indexed _playerX,address indexed _playerY,uint _stakeTemp ,uint indexed _matchID,uint _boardSize,uint _numberOfShips);\n\n    // propose the stake for the match \n    event stakeProposal(uint indexed _matchID,uint _stake,address _proposer);\n\n    // stake proposal has been accepted\n    event stakeAccepted(uint indexed _matchID,uint _stake);\n\n    // match has been created\n    event newMatchCreated(address indexed _proposer,uint _assignedMatchID);\n\n    // match has started\n    event matchStarted(uint indexed _matchID, address indexed _playerX, address indexed _playerY);\n\n    // attack by a player \n    event attackPerformed(uint indexed _matchID ,address _attackerAddress, address _opponentAddress, uint _attackedRow, uint _attackedCol);\n\n    // Event to indicate the result of an attack\n    event attackResult(uint _matchID, uint8  _result,address _attackerAddress);\n\n    // Event to signal the end of the match and init verification of the winner board\n    event matchFinished(uint indexed _matchID,address _winnerAddr,address _loserAddr,string _cause);\n\n    // Event to notify an accusation made by a player against another player\n    event accuse(uint indexed _matchID,address _accused,address _accuser);\n\n    // Event to notify the winner of the match\n    event winnerIs(uint indexed _matchID,address _winnerAddr, string _cause);\n\n    // create a new match with specified board size and number of ships\n    function createMatch(uint _boardSize, uint _numberOfShips) public validSize(_boardSize) {\n\n        // Create a new Battle instance\n        Battle memory newMatch;\n\n        // set match parameters\n        newMatch.playerX = msg.sender;\n        newMatch.playerY = address(0);\n        newMatch.joinableMatch = true;\n        newMatch.startedMatch = false;\n        newMatch.boardSize = _boardSize;\n        newMatch.stake = 0;\n        newMatch.stakeProposer = address(0);\n        newMatch.stakeProposal = 0;\n        newMatch.merkleX = 0;\n        newMatch.merkleY = 0;\n        newMatch.stakeX = 0;\n        newMatch.stakeY = 0;\n        newMatch.NumShipsX = _numberOfShips;\n        newMatch.NumShipsY = _numberOfShips;\n        newMatch.fixedShipsNumber = _numberOfShips;\n        newMatch.timeoutForAccusation = 0;\n        newMatch.accusedOpponent = address(0);\n        newMatch.currentPlayerTurn = msg.sender;\n\n        // insert the new match to the gamesArray\n        gamesArray.push(newMatch);\n        // increment the counter for active matches\n        currentGames++;\n        // output an event for the creation of a new match\n        emit newMatchCreated(msg.sender, gamesArray.length-1);\n    }\n\n\n    // define function to join a specific match by match ID\n    function JoinMatch(uint _matchID) checkValidityIdMatch(_matchID) public {\n\n        // matchInstance is a reference as type Battle to the specific match ID, with storage matchInstance points to the blockchain (not a copy of the data)\n        Battle storage matchIstance = gamesArray[_matchID];\n        // check if the match is joinable\n        require(currentGames > 0, \"No available matches!\");\n\n        uint returnIndex = _matchID;\n        // check conditions before allowing a player to join the match\n        require(matchIstance.playerX != address(0), \"No player in this match\");\n        require(matchIstance.playerY == address(0), \"Both players already joined\");\n        require(matchIstance.joinableMatch, \"Match not joinable\");\n        require(matchIstance.playerX != msg.sender, \"You are already in this match\");\n\n        // set the match as no longer joinable and assign the current player (msg.sender) as playerY\n        matchIstance.joinableMatch = false;\n        matchIstance.playerY = msg.sender;\n        // so decrement the count of available matches\n        currentGames--;\n        // send event to notify the players have joined the match\n        emit playersJoined(\n            matchIstance.playerX,\n            matchIstance.playerY,\n            matchIstance.stakeProposal,\n            returnIndex,\n            matchIstance.boardSize,\n            matchIstance.NumShipsX\n        );\n    }\n\n    // private function to find a joinable match\n    function findJoinableMatch() private view returns (uint) {\n\n        bytes32 rand = randomValue(); \n        // convert it to a valid index within the range of active matches\n        uint remainingIndex = uint(rand) % currentGames + 1; \n        // Iterate through the match list to find a joinable match.\n        for (uint i = 0; i < gamesArray.length; i++) {\n            // check if the current match is joinable\n            if (gamesArray[i].joinableMatch) { \n                // if the remaining index is 1 -> found the desired match\n                if (remainingIndex == 1) { \n                    // return the index of the joinable match\n                    return i; \n                }\n                // decrement the remaining index if the current match is not joinable\n                remainingIndex--; \n            }\n        }\n        return gamesArray.length; // No joinable match found, return the length of the match list.\n    }\n\n    // function for random value\n    function randomValue() private view returns (bytes32) {\n        // uses th hash of the current block and the random number from the beacon chain\n        bytes32 randValue = keccak256(abi.encodePacked(blockhash(block.number), block.timestamp, block.basefee));\n        return randValue;\n    }\n\n    // function to join a RANDOM MATCH (a game must be created)\n    function JoinRandom() public {\n        // need available matches\n        require(currentGames > 0, \"No matches found\");\n\n        // find a joinable match and store its index in returnIndex\n        uint returnIndex = findJoinableMatch();\n\n        // a valid match index is returned\n        require(returnIndex < gamesArray.length, \"No available matches!\");\n\n        // cccess the matched game using its index and store it in matchedGame\n        Battle storage matchedGame = gamesArray[returnIndex];\n\n        // the current player (msg.sender) is not already in the match\n        require(matchedGame.playerX != msg.sender, \"You are in this match\");\n\n        // assign the current player (msg.sender) as playerY and mark the match as no longer joinable\n        matchedGame.playerY = msg.sender;\n        matchedGame.joinableMatch = false;\n        // decrement the counter\n        currentGames--;\n\n        // emit event s.t. players have joined the match\n        emit playersJoined(\n            matchedGame.playerX,\n            matchedGame.playerY,\n            matchedGame.stakeProposal,\n            returnIndex,\n            matchedGame.boardSize,\n            matchedGame.NumShipsX\n        );\n    }\n\n    // function to propose a stake for a specific match (1st step for the amont of eth)\n    function proposeStake(uint _matchID, uint _stake) checkValidityIdMatch(_matchID) public {\n\n        // get the match instance from the gamesArray based on ID\n        Battle storage matchInstance = gamesArray[_matchID];\n\n        // ensure that the sender is one of the players in the match\n        require(matchInstance.playerX == msg.sender || matchInstance.playerY == msg.sender, \"Unauthorized player\");\n\n        // set the proposed stake amount for the match\n        matchInstance.stakeProposal = _stake;\n        // set the sender's address as the stake proposer\n        matchInstance.stakeProposer = msg.sender;\n        //notify that a stake proposal has been made\n        emit stakeProposal(_matchID, _stake, msg.sender);\n    }\n\n\n    // function to accept the proposed stake for a specific match (2nd step for the amont of eth)\n    function acceptStake(uint _matchID) public checkValidityIdMatch(_matchID) onlyPlayer(_matchID) stakeVariable(_matchID) {\n        \n        // get the match instance from the gamesArray based on ID\n        Battle storage matchIstance = gamesArray[_matchID];\n        // ensure that the sender is not the stake proposer\n        require(matchIstance.stakeProposer != msg.sender, \"It' your stake, nisba!\");\n        // Set the stake amount for the match to the proposed stake\n        matchIstance.stake = matchIstance.stakeProposal;\n\n        // notify that the stake proposal has been accepted\n        emit stakeAccepted(_matchID, matchIstance.stake);\n    }\n\n/* function allowing players to send eth as a stake for a match (given the ID).\nEnsure:\n1) match ID provided is valid \n2) sender of transaction is one of the players in the match\n3) the sent Ether stake is greater than 0.\nIf ok -> update the player's eth stake (based on sender add)\nIf sender is player X -> eth is added to player X's stake (stakeX).\nIf sender is player Y -> eth is added to player Y's stake (stakeY). */\n\n    function payStake(uint _matchID) public payable checkValidityIdMatch(_matchID) onlyPlayer(_matchID) {\n\n        // check if sent Ether stake is greater than 0\n        require(msg.value > 0, \"no way!\");\n\n        // update the corresponding player's Ether stake\n        if (gamesArray[_matchID].playerX == msg.sender) {\n            gamesArray[_matchID].stakeX += msg.value; \n        } else {\n            gamesArray[_matchID].stakeY += msg.value; \n        }\n    }\n\n\n    // manage the attacks, account for timeout,\n    function attackOpponent(uint _matchID, uint256 _attackedRow, uint256 _attackedCol) public checkValidityIdMatch(_matchID) onlyPlayer(_matchID) {\n        // get the match instance from the gamesArray based on ID\n        Battle storage matchIstance = gamesArray[_matchID];\n\n        // require it is the sender's turn to attack\n        // checks if it's the sender's turn to attack by comparing the current player turn with the sender's address\n        require(matchIstance.currentPlayerTurn == msg.sender, \"Not your turn to attack\");\n\n        // reset accused player and timeout\n        matchIstance.accusedOpponent = address(0);\n        matchIstance.timeoutForAccusation = 0;\n\n        // determine the opponent based on the sender's address\n        address opponent = (matchIstance.playerX == msg.sender) ? matchIstance.playerY : matchIstance.playerX;\n\n        // emit the attack event \n        emit attackPerformed(_matchID, msg.sender, opponent, _attackedRow, _attackedCol);\n        // update player turn\n        matchIstance.currentPlayerTurn = opponent;\n    }\n\n\n    // function to register the Merkle root for a specific matc by the id\n    function registerMerkleRoot(bytes32 _merkleroot, uint _matchID) public checkValidityIdMatch(_matchID) onlyPlayer(_matchID) {\n        // get the match instance from the gamesArray based on ID\n        Battle storage matchData = gamesArray[_matchID];\n        // if the sender of transaction is the  playerX\n        if (msg.sender == matchData.playerX) {\n            // set the merkel root for playerX \n            matchData.merkleX = _merkleroot;\n        } else {\n            // set the merkel root for playerY\n            matchData.merkleY = _merkleroot;\n        }\n        // if both players have provided their merkle roots to start the match (spawn a Tr)\n        if (matchData.merkleY != 0 && matchData.merkleX != 0) {\n            // set the flag for match start\n            matchData.startedMatch = true;\n            // emit the match has started\n            emit matchStarted(_matchID, matchData.playerX, matchData.playerY);\n        }\n    }\n\n\n/* function for submit of an attack proof (specific ID match) I need:\n1) match must be valid, \n2) sender is one of the players\n3) the match hasn't started yet\noperations:\n4) Calculates a Merkle root based on the provided Merkle proof \n5) compares it with the merkle root of the attacking player\nIF Merkle roots match -> do the attack\n                         updates ship counts\n6) check the match is ended \n7) transfers money to the winne*/\n\n    function submitAttackProof(uint _matchID, uint8 _attackResult, bytes32 _attackHash, bytes32[] memory merkleProof) public checkValidityIdMatch(_matchID) onlyPlayer(_matchID) merkleRootProvided(_matchID) {\n        // get the match instance form gamesArray\n        Battle storage matchInstance = gamesArray[_matchID];\n\n        // set the computed merkle root to provided attack hash\n        bytes32 computedMerkleRoot = _attackHash;\n\n        // flag to indicate if cheating is detected\n        bool cheaterDetected = false;\n\n        // addresses to store the winner and loser\n        address winner;\n        address loser;\n\n        // Calculate the computed Merkle root using the provided merkle proof\n        for (uint i = 0; i < merkleProof.length; i++) {\n            computedMerkleRoot = keccak256(abi.encodePacked(merkleProof[i] ^ computedMerkleRoot));\n        }\n\n        // Determine the player's Merkle root and the number of their remaining ships\n        uint256 playerNumShips;\n        bytes32 playerMerkleRoot;\n\n        // get player's ship count and merkle root \n        (playerNumShips, playerMerkleRoot) = getPlayerInfo(matchInstance, msg.sender);\n\n        // hash the player's Merkle root to compare with the computed root\n        playerMerkleRoot = keccak256(abi.encodePacked(playerMerkleRoot));\n        computedMerkleRoot = keccak256(abi.encodePacked(computedMerkleRoot));\n\n        // If m root ==  player's merkle root -> attack is valid\n        if (computedMerkleRoot == playerMerkleRoot) {\n            //emit attack result event\n            emit attackResult(_matchID, _attackResult, getOpponent(matchInstance, msg.sender));\n\n             // ship destruction and updates based on the attack result\n            if (_attackResult == 1) {\n                if (msg.sender == matchInstance.playerX) {\n                    matchInstance.NumShipsX--;\n                } else {\n                    matchInstance.NumShipsY--;\n                }\n            }\n        } else {\n            // get the winner and loser in case of cheating\n            (winner, loser) = getWinnerAndLoser(matchInstance, msg.sender);\n            // set metch status fo finished\n            matchInstance.startedMatch = false;\n\n            // emit match finished event with cheating msg\n            emit matchFinished(_matchID, winner, loser, \"not valid attack!\");\n            cheaterDetected = true;\n        }\n\n        // check for match completion conditions and transfer rewards if applicable\n        if (matchInstance.NumShipsX <= 0 || matchInstance.NumShipsY <= 0) {\n            // determin winner sccording to ramaining ships\n            winner = (msg.sender == matchInstance.playerX) ? matchInstance.playerY : matchInstance.playerX;\n            \n            // set match as finished\n            matchInstance.startedMatch = false;\n\n            // emit match finished\n            emit matchFinished(_matchID, winner, msg.sender, \"No ships left!\");\n        }\n\n    }\n\n\n    // retreive informations about the player\n    function getPlayerInfo(Battle storage matchInstance, address player) internal view returns (uint256, bytes32) {\n        // return the number of ships and the MR based if the player is X || Y\n        // check if the player is playerX\n        if (player == matchInstance.playerX) {\n            // if playerX -> return the #ships and MR\n            return (matchInstance.NumShipsX, matchInstance.merkleX);\n        } else {\n            // return palyerY stuff\n            return (matchInstance.NumShipsY, matchInstance.merkleY);\n        }\n    }\n\n    function getOpponent(Battle storage matchInstance, address player) internal view returns (address) {\n        // return the opponent's address based on whether the provided player is playerX or playerY\n        return (player == matchInstance.playerX) ? matchInstance.playerY : matchInstance.playerX;\n    }\n\n    function getWinnerAndLoser(Battle storage matchInstance, address cheater) internal view returns (address, address) {\n        // determine the winner and loser based on the address of the player who cheated\n        if (cheater == matchInstance.playerX) {\n            return (matchInstance.playerY, matchInstance.playerX);\n        } else {\n            return (matchInstance.playerX, matchInstance.playerY);\n        }\n    }\n\n\n    function verifyBoard(uint _matchID, int256[] memory _cells) public checkValidityIdMatch(_matchID) onlyPlayer(_matchID) {\n        // get match instance from gamesArray\n        Battle storage matchInstance = gamesArray[_matchID];\n\n        // store the winner and loser\n        address winner;\n        address loser;\n\n        // check who is winner or loser acc to remaining ships\n        if ((msg.sender == matchInstance.playerX && matchInstance.NumShipsY <= 0) || \n            (msg.sender == matchInstance.playerY && matchInstance.NumShipsX <= 0)) {\n                // / set winner and loser based on the sender's address\n                winner = (msg.sender == matchInstance.playerX) ? matchInstance.playerX : matchInstance.playerY;\n                loser = (msg.sender == matchInstance.playerX) ? matchInstance.playerY : matchInstance.playerX;\n        } else {\n            // revert if there is no winner (cheating detected)\n            revert(\"Error: no winner!\");\n        }\n\n        // get size of the board and the actual length of the provided cells array \n        uint256 declaredSize = matchInstance.boardSize;\n        uint256 actualLength = _cells.length;\n\n        // check if the actual board size matches the declared size\n        if (actualLength != declaredSize * declaredSize) {\n            // emit an event indicating that the opponent declared a different board size and transfer rewards to the loser\n            emit winnerIs(_matchID, loser, \"Opponent declared a different board size!\");\n            // so transfer\n            transferRewards(loser, _matchID, true);\n            return;\n        }\n\n        // number of remaining ships based on the provided cells array\n        uint ships = 0;\n        for (uint i = 0; i < _cells.length; i++) {\n            if (_cells[i] >= 1) {\n                ships++;\n            }\n        }\n        // check if the number of remaining ships matches the declared number of ships\n        uint256 shipsNumber = matchInstance.fixedShipsNumber;\n        if (ships < shipsNumber) {\n            emit winnerIs(_matchID, loser, \"Opponent declared a different number of ships!\");\n            transferRewards(loser, _matchID, true);\n            return;\n        }\n        // here NO cheating detected, transfer rewards to the winner.\n        emit winnerIs(_matchID, winner, \"ETH transferred to your account!\");\n        transferRewards(winner, _matchID, false);\n    }\n\n\n    function transferRewards(address _recipient, uint _matchID, bool _cheaterDetected) internal {\n        // get match instance\n        Battle storage matchInstance = gamesArray[_matchID];\n        // calculate the reward amount (twice the stake)\n        uint256 reward = matchInstance.stake * 2;\n\n        // transfer rewards based on cheating detection\n        if (_cheaterDetected) {\n            // transfer rewards to the recipient\n            payable(_recipient).transfer(reward);\n        } else {\n            // determine the loser based on the recipient\n            address loser = (_recipient == matchInstance.playerX) ? matchInstance.playerY : matchInstance.playerX;\n            // transfer rewards to the recipient and the lose\n            payable(_recipient).transfer(reward);\n            payable(loser).transfer(reward);\n        }\n\n        // remove the match from the list.\n        delete gamesArray[_matchID];\n    }\n\n    // function to accuse the opponent of cheating\n    function accuseOpponent(uint _matchID) public checkValidityIdMatch(_matchID) onlyPlayer(_matchID) isnotAccused(_matchID) {\n        \n        Battle storage matchIstance = gamesArray[_matchID];\n        address accusedOpponent;\n\n        bool timeoutExceeded = false;\n        address winner;\n        address loser;\n\n        // Determine the accused opponent based on the sender\n        if (matchIstance.playerY == msg.sender) {\n            accusedOpponent = matchIstance.playerX;\n        } else {\n            accusedOpponent = matchIstance.playerY;\n        }\n\n        // Handle timeout scenario\n        if (matchIstance.timeoutForAccusation != 0) {\n            // Check if more than 5 blocks have passed since the notify was triggered\n            if (block.number >= matchIstance.timeoutForAccusation) {\n                // Determine the winner and transfer ETH accordingly\n\n                if (matchIstance.accusedOpponent == matchIstance.playerY) {\n                    winner = matchIstance.playerX;\n                    loser = matchIstance.playerY;\n                } else {\n                    winner = matchIstance.playerY;\n                    loser = matchIstance.playerX;\n                }\n\n                timeoutExceeded = true;\n\n                // End the match due to timeout\n                emit winnerIs(_matchID, winner, \"AFK timeout reached: match finished!\");\n            } else {\n                // Emit accusation notification\n                emit accuse(_matchID, accusedOpponent, msg.sender);\n            }\n        } else {\n            // Set the timeout for accusation and record the accused opponent\n            matchIstance.timeoutForAccusation = block.number + 5;\n            matchIstance.accusedOpponent = accusedOpponent;\n\n            // Emit accusation notification\n            emit accuse(_matchID, accusedOpponent, msg.sender);\n        }\n\n        if(timeoutExceeded && winner != address(0)){\n            // Transfer the stake to the accused opponent\n            payable(winner).transfer(matchIstance.stake * 2);\n        }\n    }\n    \n}\n\n/* \ngas cost eval\n{\"NewMatch\":243197,\n\"JoinMatch\":40800,\n\"JoinRandom\":43784,\n\"proposeStake\":72258,\n\"acceptStake\":56611,\n\"payStake\":48550,\n\"registerMerkleRoot\":51086,\n\"attackOpponent\":40521,\"\naccuseOpponent\":44909}\n */\n\n\n\n",
  "sourcePath": "/home/af/Scrivania/BattleshipR-M/contracts/Battleship.sol",
  "compiler": {
    "name": "solc",
    "version": "0.8.19+commit.7dd6d404.Emscripten.clang"
  },
  "schemaVersion": "3.4.13",
  "updatedAt": "2024-02-10T12:59:57.876Z",
  "networkType": "ethereum",
  "devdoc": {
    "kind": "dev",
    "methods": {},
    "version": 1
  },
  "userdoc": {
    "kind": "user",
    "methods": {},
    "version": 1
  }
}