{
  "contractName": "Battleship",
  "abi": [
    {
      "inputs": [
        {
          "internalType": "string",
          "name": "err",
          "type": "string"
        }
      ],
      "name": "ErrorOut",
      "type": "error"
    },
    {
      "anonymous": false,
      "inputs": [
        {
          "indexed": true,
          "internalType": "address",
          "name": "_proposer",
          "type": "address"
        },
        {
          "indexed": false,
          "internalType": "uint256",
          "name": "_assignedMatchID",
          "type": "uint256"
        }
      ],
      "name": "UintOutput",
      "type": "event"
    },
    {
      "anonymous": false,
      "inputs": [
        {
          "indexed": true,
          "internalType": "uint256",
          "name": "_matchID",
          "type": "uint256"
        },
        {
          "indexed": false,
          "internalType": "address",
          "name": "_accused",
          "type": "address"
        },
        {
          "indexed": false,
          "internalType": "address",
          "name": "_accuser",
          "type": "address"
        }
      ],
      "name": "accusationNotify",
      "type": "event"
    },
    {
      "anonymous": false,
      "inputs": [
        {
          "indexed": true,
          "internalType": "uint256",
          "name": "_matchID",
          "type": "uint256"
        },
        {
          "indexed": false,
          "internalType": "address",
          "name": "_attackerAddress",
          "type": "address"
        },
        {
          "indexed": false,
          "internalType": "address",
          "name": "_opponentAddress",
          "type": "address"
        },
        {
          "indexed": false,
          "internalType": "uint256",
          "name": "_attackedRow",
          "type": "uint256"
        },
        {
          "indexed": false,
          "internalType": "uint256",
          "name": "_attackedCol",
          "type": "uint256"
        }
      ],
      "name": "attackNotify",
      "type": "event"
    },
    {
      "anonymous": false,
      "inputs": [
        {
          "indexed": false,
          "internalType": "uint256",
          "name": "_matchID",
          "type": "uint256"
        },
        {
          "indexed": false,
          "internalType": "uint8",
          "name": "_result",
          "type": "uint8"
        },
        {
          "indexed": false,
          "internalType": "address",
          "name": "_attackerAddress",
          "type": "address"
        }
      ],
      "name": "attackResult",
      "type": "event"
    },
    {
      "anonymous": false,
      "inputs": [
        {
          "indexed": true,
          "internalType": "uint256",
          "name": "_matchID",
          "type": "uint256"
        },
        {
          "indexed": false,
          "internalType": "address",
          "name": "_winnerAddr",
          "type": "address"
        },
        {
          "indexed": false,
          "internalType": "address",
          "name": "_loserAddr",
          "type": "address"
        },
        {
          "indexed": false,
          "internalType": "string",
          "name": "_cause",
          "type": "string"
        }
      ],
      "name": "matchFinished",
      "type": "event"
    },
    {
      "anonymous": false,
      "inputs": [
        {
          "indexed": true,
          "internalType": "uint256",
          "name": "_matchID",
          "type": "uint256"
        },
        {
          "indexed": true,
          "internalType": "address",
          "name": "_playerX",
          "type": "address"
        },
        {
          "indexed": true,
          "internalType": "address",
          "name": "_playerY",
          "type": "address"
        }
      ],
      "name": "matchStarted",
      "type": "event"
    },
    {
      "anonymous": false,
      "inputs": [
        {
          "indexed": true,
          "internalType": "address",
          "name": "_playerX",
          "type": "address"
        },
        {
          "indexed": true,
          "internalType": "address",
          "name": "_playerY",
          "type": "address"
        },
        {
          "indexed": false,
          "internalType": "uint256",
          "name": "_stakeTemp",
          "type": "uint256"
        },
        {
          "indexed": true,
          "internalType": "uint256",
          "name": "_matchID",
          "type": "uint256"
        },
        {
          "indexed": false,
          "internalType": "uint256",
          "name": "_boardSize",
          "type": "uint256"
        },
        {
          "indexed": false,
          "internalType": "uint256",
          "name": "_numberOfShips",
          "type": "uint256"
        }
      ],
      "name": "playersJoined",
      "type": "event"
    },
    {
      "anonymous": false,
      "inputs": [
        {
          "indexed": true,
          "internalType": "uint256",
          "name": "_matchID",
          "type": "uint256"
        },
        {
          "indexed": false,
          "internalType": "uint256",
          "name": "_stake",
          "type": "uint256"
        }
      ],
      "name": "stakeAccepted",
      "type": "event"
    },
    {
      "anonymous": false,
      "inputs": [
        {
          "indexed": true,
          "internalType": "uint256",
          "name": "_matchID",
          "type": "uint256"
        },
        {
          "indexed": false,
          "internalType": "uint256",
          "name": "_stake",
          "type": "uint256"
        },
        {
          "indexed": false,
          "internalType": "address",
          "name": "_proposer",
          "type": "address"
        }
      ],
      "name": "stakeProposal",
      "type": "event"
    },
    {
      "anonymous": false,
      "inputs": [
        {
          "indexed": true,
          "internalType": "uint256",
          "name": "_matchID",
          "type": "uint256"
        },
        {
          "indexed": false,
          "internalType": "address",
          "name": "_winnerAddr",
          "type": "address"
        },
        {
          "indexed": false,
          "internalType": "string",
          "name": "_cause",
          "type": "string"
        }
      ],
      "name": "winnerIs",
      "type": "event"
    },
    {
      "inputs": [],
      "name": "currentGames",
      "outputs": [
        {
          "internalType": "uint256",
          "name": "",
          "type": "uint256"
        }
      ],
      "stateMutability": "view",
      "type": "function",
      "constant": true
    },
    {
      "inputs": [
        {
          "internalType": "uint256",
          "name": "",
          "type": "uint256"
        }
      ],
      "name": "gamesArray",
      "outputs": [
        {
          "internalType": "address",
          "name": "playerX",
          "type": "address"
        },
        {
          "internalType": "address",
          "name": "playerY",
          "type": "address"
        },
        {
          "internalType": "bool",
          "name": "joinableMatch",
          "type": "bool"
        },
        {
          "internalType": "bool",
          "name": "startedMatch",
          "type": "bool"
        },
        {
          "internalType": "uint256",
          "name": "boardSize",
          "type": "uint256"
        },
        {
          "internalType": "uint256",
          "name": "stake",
          "type": "uint256"
        },
        {
          "internalType": "address",
          "name": "stakeProposer",
          "type": "address"
        },
        {
          "internalType": "uint256",
          "name": "stakeProposal",
          "type": "uint256"
        },
        {
          "internalType": "bytes32",
          "name": "merkleX",
          "type": "bytes32"
        },
        {
          "internalType": "bytes32",
          "name": "merkleY",
          "type": "bytes32"
        },
        {
          "internalType": "uint256",
          "name": "stakeX",
          "type": "uint256"
        },
        {
          "internalType": "uint256",
          "name": "stakeY",
          "type": "uint256"
        },
        {
          "internalType": "uint256",
          "name": "NumShipsX",
          "type": "uint256"
        },
        {
          "internalType": "uint256",
          "name": "NumShipsY",
          "type": "uint256"
        },
        {
          "internalType": "uint256",
          "name": "fixedShipsNumber",
          "type": "uint256"
        },
        {
          "internalType": "uint256",
          "name": "timeoutForAccusation",
          "type": "uint256"
        },
        {
          "internalType": "address",
          "name": "accusedOpponent",
          "type": "address"
        },
        {
          "internalType": "address",
          "name": "currentPlayerTurn",
          "type": "address"
        }
      ],
      "stateMutability": "view",
      "type": "function",
      "constant": true
    },
    {
      "inputs": [
        {
          "internalType": "uint256",
          "name": "_boardSize",
          "type": "uint256"
        },
        {
          "internalType": "uint256",
          "name": "_numberOfShips",
          "type": "uint256"
        }
      ],
      "name": "NewMatch",
      "outputs": [],
      "stateMutability": "nonpayable",
      "type": "function"
    },
    {
      "inputs": [
        {
          "internalType": "uint256",
          "name": "_matchID",
          "type": "uint256"
        }
      ],
      "name": "JoinMatch",
      "outputs": [],
      "stateMutability": "nonpayable",
      "type": "function"
    },
    {
      "inputs": [],
      "name": "JoinRandom",
      "outputs": [],
      "stateMutability": "nonpayable",
      "type": "function"
    },
    {
      "inputs": [
        {
          "internalType": "uint256",
          "name": "_matchID",
          "type": "uint256"
        },
        {
          "internalType": "uint256",
          "name": "_stake",
          "type": "uint256"
        }
      ],
      "name": "proposeStake",
      "outputs": [],
      "stateMutability": "nonpayable",
      "type": "function"
    },
    {
      "inputs": [
        {
          "internalType": "uint256",
          "name": "_matchID",
          "type": "uint256"
        }
      ],
      "name": "acceptStake",
      "outputs": [],
      "stateMutability": "nonpayable",
      "type": "function"
    },
    {
      "inputs": [
        {
          "internalType": "uint256",
          "name": "_matchID",
          "type": "uint256"
        }
      ],
      "name": "payStake",
      "outputs": [],
      "stateMutability": "payable",
      "type": "function",
      "payable": true
    },
    {
      "inputs": [
        {
          "internalType": "uint256",
          "name": "_matchID",
          "type": "uint256"
        },
        {
          "internalType": "uint256",
          "name": "_attackedRow",
          "type": "uint256"
        },
        {
          "internalType": "uint256",
          "name": "_attackedCol",
          "type": "uint256"
        }
      ],
      "name": "attackOpponent",
      "outputs": [],
      "stateMutability": "nonpayable",
      "type": "function"
    },
    {
      "inputs": [
        {
          "internalType": "bytes32",
          "name": "_merkleroot",
          "type": "bytes32"
        },
        {
          "internalType": "uint256",
          "name": "_matchID",
          "type": "uint256"
        }
      ],
      "name": "registerMerkleRoot",
      "outputs": [],
      "stateMutability": "nonpayable",
      "type": "function"
    },
    {
      "inputs": [
        {
          "internalType": "uint256",
          "name": "_matchID",
          "type": "uint256"
        },
        {
          "internalType": "uint8",
          "name": "_attackResult",
          "type": "uint8"
        },
        {
          "internalType": "bytes32",
          "name": "_attackHash",
          "type": "bytes32"
        },
        {
          "internalType": "bytes32[]",
          "name": "merkleProof",
          "type": "bytes32[]"
        }
      ],
      "name": "submitAttackProof",
      "outputs": [],
      "stateMutability": "nonpayable",
      "type": "function"
    },
    {
      "inputs": [
        {
          "internalType": "uint256",
          "name": "_matchID",
          "type": "uint256"
        },
        {
          "internalType": "int256[]",
          "name": "_cells",
          "type": "int256[]"
        }
      ],
      "name": "verifyBoard",
      "outputs": [],
      "stateMutability": "nonpayable",
      "type": "function"
    },
    {
      "inputs": [
        {
          "internalType": "uint256",
          "name": "_matchID",
          "type": "uint256"
        }
      ],
      "name": "accuseOpponent",
      "outputs": [],
      "stateMutability": "nonpayable",
      "type": "function"
    }
  ],
  "bytecode": "0x6080806040523461001b576000600155611a9e90816100218239f35b600080fdfe60a0604052600436101561001257600080fd5b60003560e01c80630bb53157146115c05780630e37dcd0146114ef578063103f0a43146114d157806310b6c0441461143057806311c780901461118257806320ed105714610eda5780634cf2a68014610de157806381a4952e14610c8d57806381f8c63714610ade57806399fd5a3714610677578063a74aa8fd14610525578063c8d99a011461015a5763f28ae7dd146100ab57600080fd5b346101555760407fc1f1a0bca1381eb89ff25432ca58f1dc161c6511e4b3aa7219cbe78e1b8ccb986100dc3661175b565b6100ec60009492945485106117d6565b60046100f78561170e565b50805461011990336001600160a01b0391821614908115610145575b50611982565b82600582015501336bffffffffffffffffffffffff60a01b8254161790558151908152336020820152a2005b6001840154163314905038610113565b600080fd5b346101555760803660031901126101555760043560243560ff81168091036101555760643567ffffffffffffffff811161015557366023820112156101555780600401356101a7816117af565b916101b5604051938461178d565b81835260209160248385019160051b8301019136831161015557602401905b828210610516575050509060ff916101ef60005486106117d6565b6101f88561170e565b50546001600160a01b0394908516331480156104f9575b61021890611982565b6102218661170e565b50600194858092015460a81c161515036104c05761023e8661170e565b50928480604435926000925b610475575b50505061025c33856119ee565b905060405184810191825284815261027381611771565b5190209060405184810191825284815261028c81611771565b519020036103ed5783858454169182331492836000146103c457507fd45185e1e8bd558a06c76a6ab710e8dad832aaf2b11b302424bbfdec26d3d29c60608884880154165b89604051918c83528589840152166040820152a114610393575b505b600a820154158015610387575b61030057005b8360a0937f2c0ce981493373d7eec23769b9247eeefda0623bb9184788695c268f3ed638e6958454168033146000146103815750818185015416935b0160ff60a81b1981541690556040519216825233908201526060604082015260136060820152724e6f206d6f7265207368697073206c6566742160681b6080820152a2005b9361033c565b50600b820154156102fa565b156103af57600a82016103a681546118a5565b90555b856102eb565b600b82016103bd81546118a5565b90556103a9565b60607fd45185e1e8bd558a06c76a6ab710e8dad832aaf2b11b302424bbfdec26d3d29c916102d1565b50847f2c0ce981493373d7eec23769b9247eeefda0623bb9184788695c268f3ed638e660a08661041d3387611a1f565b88889392930160ff60a81b1981541690558160405193168352168582015260606040820152601f60608201527f4348454154494e473a20496e76616c69642061747461636b2070726f6f6621006080820152a26102ed565b90919281518410156104b7576104af9061048f85846119c4565b51186040518781019182528781526104a681611771565b519020936117c7565b91908161024a565b9282915061024f565b60405162461bcd60e51b815260048101839052601160248201527013585d18da081b9bdd081cdd185c9d1959607a1b6044820152606490fd5b506102186105068761170e565b506001015486163314905061020f565b813581529083019083016101d4565b346101555760603660031901126101555760043561054660005482106117d6565b61054f8161170e565b50546001600160a01b039081163314801561065a575b61056e90611982565b6105778261170e565b50600f8101928354903384831603610615577fb2d5ac2ed092bc820ca85d451975bb38ac9970524b10619dfabdf1fdd7441c4a608085600e8601956bffffffffffffffffffffffff60a01b968781541690556000600d8201558181541633811460001461060c57506001015416955b60405196338852169586602082015260243560408201526044356060820152a216179055005b915050956105e6565b60405162461bcd60e51b815260206004820152601760248201527f4e6f7420796f7572207475726e20746f2061747461636b0000000000000000006044820152606490fd5b5061056e6106678361170e565b5060010154821633149050610565565b34610155576040366003190112610155576024600435813567ffffffffffffffff811161015557366023820112156101555780600401356106b7816117af565b916106c5604051938461178d565b818352602091858385019160051b830101913683116101555786849101915b838310610ace57505050506106fc60005484106117d6565b6107058361170e565b50546001600160a01b039290831633148015610ab1575b61072590611982565b61072e8461170e565b50906000928483541680331480610aa5575b15610a38579185600185015416945b600c850154906002860154835181800291808304811490151715610a2357146108fe5750505085600080516020611a4983398151915260a060019360408051918a8a168352820152602960408201527f4f70706f6e656e74206465636c61726564206120646966666572656e7420626f6060820152686172642073697a652160b81b6080820152a25b156108c2575060030154908160011b91808304600214901517156108ad57600092839283928392839183156108a3575b1690f115610897576108199061170e565b919091610883576000600f8382815582600182015582600282015582600382015582600482015582600582015582600682015582600782015582600882015582600982015582600a82015582600b82015582600c82015582600d82015582600e8201550155600080f35b634e487b7160e01b60005260006004526000fd5b6040513d6000823e3d90fd5b6108fc9250610808565b84634e487b7160e01b60005260116004526000fd5b915060030154908160011b91808304600214901517156108ad57600092839283928392839183156108a3571690f115610897576108199061170e565b96939097949198959260009760005b8b5181101561094d576001610922828e6119c4565b511215610938575b610933906117c7565b61090d565b98610945610933916117c7565b99905061092a565b50929598909396995088919497106000146109cf579050600080516020611a4983398151915260a060019360408051918a8a168352820152602e60408201527f4f70706f6e656e74206465636c61726564206120646966666572656e74206e7560608201526d6d626572206f662073686970732160901b6080820152a26107d8565b90916080600080516020611a498339815191529160405190898716825260408183015260408201527f455448207472616e7366657272656420746f20796f7572206163636f756e74216060820152a26107d8565b8b634e487b7160e01b60005260116004526000fd5b918560018501541680331480610a99575b15610a5557929461074f565b60405162461bcd60e51b815260048101849052601a818b01527f4572726f723a207468657265206973206e6f2077696e6e6572210000000000006044820152606490fd5b50600a85015415610a49565b50600b84015415610740565b50610725610abe8561170e565b506001015484163314905061071c565b82358152918101918491016106e4565b3461015557602036600319011261015557600435610aff60005482106117d6565b610b088161170e565b50610b166001541515611815565b80546001600160a01b039081168015610c485760018301918254818116610c035760ff8160a01c1615610bc957610b707f7172203a6174cc3699ee36aa30f13a238141f6b3a5006971ae04c5cd733b9ca993331415611859565b6001600160a81b03191633178355600154610b8a906118a5565b60015580845416925416926005810154610bc4600a6002840154930154604051938493846040919493926060820195825260208201520152565b0390a4005b60405162461bcd60e51b81526020600482015260126024820152714d61746368206e6f74206a6f696e61626c6560701b6044820152606490fd5b60405162461bcd60e51b815260206004820152601b60248201527f426f746820706c617965727320616c7265616479206a6f696e656400000000006044820152606490fd5b60405162461bcd60e51b815260206004820152601760248201527f4e6f20706c6179657220696e2074686973206d617463680000000000000000006044820152606490fd5b3461015557602036600319011261015557600435610cae60005482106117d6565b610cb78161170e565b50546001600160a01b0390811633148015610dc4575b610cd690611982565b6005610ce18361170e565b50015415610d7f57610cf28261170e565b5090339060048301541614610d3a57602060038260057fccb4477248b42de3f8dc0e70b3dd8f156cb72af7bc5c56e3cadf164ec74995139401549182910155604051908152a2005b60405162461bcd60e51b815260206004820152601c60248201527f43616e6e6f742061636365707420796f7572206f776e207374616b65000000006044820152606490fd5b60405162461bcd60e51b815260206004820152601760248201527f54656d706f72617279207374616b65206e6f74207365740000000000000000006044820152606490fd5b50610cd6610dd18361170e565b5060010154821633149050610ccd565b346101555760403660031901126101555760043560243590610e0660005483106117d6565b610e0f8261170e565b50546001600160a01b0390811633148015610ebd575b610e2e90611982565b610e378361170e565b5091818354163314600014610eb35760068301555b6007820154151580610ea6575b610e5f57005b60018201805460ff60a81b198116600160a81b179091559154918116929116907f6d3823f34c0a4bdf153f07ff328591149ec0ff57e31bd856adbecec9a8f85f88600080a4005b5060068201541515610e59565b6007830155610e4c565b50610e2e610eca8461170e565b5060010154821633149050610e25565b3461015557602036600319011261015557600435610efb60005482106117d6565b610f048161170e565b50546001600160a01b039190821633148015611165575b610f2490611982565b610f2d8161170e565b50600e01548216331461112057610f438161170e565b5060008060018301918583541633811460001461111b5750858454165b600d85018054156110ac5754431061105e57505050600e820154905484169084168103611058575082815416915b600190600080516020611a4983398151915260a0604051878716815260406020820152602460408201527f41464b2074696d656f757420726561636865643a206d617463682066696e69736060820152636865642160e01b6080820152a25b8061104d575b610ff957005b60030154908160011b9180830460021490151715611037576000928392839283928391831561102d575b1690f11561089757005b6108fc9250611023565b634e487b7160e01b600052601160045260246000fd5b508282161515610ff3565b91610f8e565b604080516001600160a01b039092168252336020830152929591935090917fc99afa52dc5139ad6950b0eff80053f91db14ac3e086d5cc898aeb8597f0894b9190819081015b0390a2610fed565b90919350600595929543019182431161103757919055600e840180546001600160a01b031916828816179055604080516001600160a01b0390921682523360208301527fc99afa52dc5139ad6950b0eff80053f91db14ac3e086d5cc898aeb8597f0894b9190819081016110a4565b610f60565b60405162461bcd60e51b815260206004820152601c60248201527f43616e6e6f7420616363757365206f70706f6e656e7420616761696e000000006044820152606490fd5b50610f246111728261170e565b5060010154831633149050610f1b565b34610155576111903661175b565b81156113f65760405191610240830183811067ffffffffffffffff8211176113e0576040523383526000602084015260016040840152600060608401526080830152600060a0830152600060c0830152600060e0830152600061010083015260006101208301526000610140830152600061016083015280610180830152806101a08301526101c082015260006101e0820152600061020082015233610220820152600054680100000000000000008110156113e057806001611256920160005561170e565b6113ca57815181546001600160a01b03199081166001600160a01b03928316178355602084015160018085018054604088015160608901516001600160b01b03199092169487169490941793151560a090811b60ff60a01b169490941790151560a81b60ff60a81b161790556080860151600286015590850151600385015560c0850151600485018054841691851691909117905560e085015160058501556101008501516006850155610120850151600785015561014085015160088501556101608501516009850155610180850151600a8501556101a0850151600b8501556101c0850151600c8501556101e0850151600d850155610200850151600e85018054841691851691909117905561022090940151600f939093018054909116929091169190911790555461138a906117c7565b6001556000546000198101908111611037576040519081527f98fe6bfadae13408aaa640b94cce01ef446d3cb316585dd37dcfc4ebe23f732960203392a2005b634e487b7160e01b600052600060045260246000fd5b634e487b7160e01b600052604160045260246000fd5b60405162461bcd60e51b8152602060048201526012602482015271496e76616c696420626f6172642073697a6560701b6044820152606490fd5b346101555760003660031901126101555761144e6001541515611815565b6114566118bf565b6114636000548210611815565b61146c8161170e565b5080546001600160a01b0390611486908216331415611859565b600182810180546001600160a81b0319163360ff60a01b1916178155905490917f7172203a6174cc3699ee36aa30f13a238141f6b3a5006971ae04c5cd733b9ca991610b8a906118a5565b34610155576000366003190112610155576020600154604051908152f35b60203660031901126101555760043561150b60005482106117d6565b6115148161170e565b50546001600160a01b03908116331480156115a3575b61153390611982565b3415611572576115428261170e565b50541633036115675761155660089161170e565b50016115633482546118b2565b9055005b61155660099161170e565b60405162461bcd60e51b815260206004820152600960248201526845746820697320302160b81b6044820152606490fd5b506115336115b08361170e565b506001015482163314905061152a565b3461015557602036600319011261015557600435600054811015610155576115e79061170e565b5060018060a01b0381541690808080808080808080806001810154600282015460ff600384015492600d600c600b600a600960086007600660058d600460018060a01b03910154169d01549d01549d01549d01549d01549d01549d01549d01549d01549d600e60018060a01b03910154169e600f60018060a01b03910154169f604051806080525260018060a01b03811660206080510152818160a01c1615156040608051015260a81c1615156060608051015260808051015260a0608051015260c0608051015260e06080510152610100608051015261012060805101526101406080510152610160608051015261018060805101526101a060805101526101c060805101526101e0608051015261020060805101526102206080510152610240608051f35b9060009182548110156117475782805260041b7f290decd9548b62a8d60345a988386fc84ba6bc95484008f6362f93160ef3e563019190565b634e487b7160e01b83526032600452602483fd5b6040906003190112610155576004359060243590565b6040810190811067ffffffffffffffff8211176113e057604052565b90601f8019910116810190811067ffffffffffffffff8211176113e057604052565b67ffffffffffffffff81116113e05760051b60200190565b60001981146110375760010190565b156117dd57565b60405162461bcd60e51b815260206004820152601060248201526f125b9d985b1a59081b585d18da08125160821b6044820152606490fd5b1561181c57565b60405162461bcd60e51b81526020600482015260156024820152744e6f20617661696c61626c65206d6174636865732160581b6044820152606490fd5b1561186057565b60405162461bcd60e51b815260206004820152601d60248201527f596f752061726520616c726561647920696e2074686973206d617463680000006044820152606490fd5b8015611037576000190190565b9190820180921161103757565b604051602081019043408252426040820152486060820152606081526080810181811067ffffffffffffffff8211176113e057604052519020600190815490811561196c5706818101809111611037576000918254925b8381106119235750505090565b60ff8261192f8361170e565b50015460a01c16611949575b611944906117c7565b611916565b918181146119655761195d611944916118a5565b92905061193b565b5050905090565b634e487b7160e01b600052601260045260246000fd5b1561198957565b60405162461bcd60e51b81526020600482015260136024820152722ab730baba3437b934bd32b210383630bcb2b960691b6044820152606490fd5b80518210156119d85760209160051b010190565b634e487b7160e01b600052603260045260246000fd5b80549092916001600160a01b03908116911603611a12576006600a83015492015490565b6007600b83015492015490565b80546001600160a01b039081169392909160019183168503611a42570154169190565b0154169056fe226d804248e4cfd79c61debb562f2416718108ae633cab58512b64ed903c8e86a26469706673582212200ab4e7e7a3100bc9f37ffc210057bb4d640b062995d47384851a197a3601678964736f6c63430008130033",
  "immutableReferences": {},
  "source": "// SPDX-License-Identifier: MIT\npragma solidity >=0.4.22 < 0.9.0;\n\ncontract Battleship {\n\n\n    // Struct to represent a match between two players\n    struct Battle {\n        address playerX;             // Address of player A\n        address playerY;             // Address of player B\n        bool joinableMatch;          // Indicates whether the match is joinable\n        bool startedMatch;           // Indicates whether the match has started\n        uint boardSize;              // Size of the board\n        uint stake;                  // Decided amount of the stake for the match\n        address stakeProposer;      // Address of the player who proposed the stake\n        uint stakeProposal;          // Proposed stake amount\n        bytes32 merkleX;       // Merkle root for player A's data\n        bytes32 merkleY;       // Merkle root for player B's data\n        uint stakeX;             // Amount of Ether staked by player A\n        uint stakeY;             // Amount of Ether staked by player B\n        uint NumShipsX;        // Number of ships owned by player A at each turn\n        uint NumShipsY;        // Number of ships owned by player B at each turn\n        uint fixedShipsNumber;       // Number of ships in the match\n        uint timeoutForAccusation;   // Timeout period for making an accusation\n        address accusedOpponent;     // Address of the accused opponent\n        address currentPlayerTurn;   // Address of the player whose turn it is\n    }\n\n    modifier validMatch(uint _matchID) {\n        // Ensure the provided match ID is within valid range\n        require(_matchID < gamesArray.length, \"Invalid match ID\");\n        _;\n    }\n\n\n\n    modifier onlyPlayer(uint _matchID) {\n        // Ensure the sender is one of the players in the specified match\n        require(gamesArray[_matchID].playerX == msg.sender || gamesArray[_matchID].playerY == msg.sender, \"Unauthorized player\");\n        _;\n    }\n\n\n\n    modifier notAccused(uint _matchID) {\n        // Ensure the sender is not the accused opponent in the specified match\n        require(gamesArray[_matchID].accusedOpponent != msg.sender, \"Cannot accuse opponent again\");\n        _;\n    }\n\n\n    modifier matchNotStarted(uint _matchID) {\n        // Ensure both players have provided their merkle roots, indicating match start\n        require(gamesArray[_matchID].startedMatch == true, \"Match not started\");\n        _;\n    }\n\n    modifier validSize(uint _size) {\n        // Ensure the provided board size is valid (greater than zero)\n        require(_size > 0, \"Invalid board size\");\n        _;\n    }\n\n    modifier temporaryStakeSet(uint _matchID) {\n        // Ensure the temporary stake for the specified match has been set\n        require(gamesArray[_matchID].stakeProposal > 0, \"Temporary stake not set\");\n        _;\n    }\n\n    \n    modifier shipsNotSunk(uint _matchID) {\n          // Ensure at least one player has sunk all their ships in the specified match\n        require(gamesArray[_matchID].NumShipsX <= 0 || gamesArray[_matchID].NumShipsY <= 0, \"Ships not sunked by any player\");\n        _;\n    }\n\n\n    // Event to notify when players have joined the match\n    event playersJoined(address indexed _playerX,address indexed _playerY,uint _stakeTemp ,uint indexed _matchID,uint _boardSize,uint _numberOfShips);\n\n    // Event to propose the stake of money for the match stake\n    event stakeProposal(uint indexed _matchID,uint _stake,address _proposer);\n\n    // Event to notify that the stake proposal has been accepted\n    event stakeAccepted(uint indexed _matchID,uint _stake);\n\n    // Event to output a uint value\n    event UintOutput(address indexed _proposer,uint _assignedMatchID);\n\n    // Custom error event\n    error ErrorOut(string err);\n\n    // Event to signal the official start of the match\n    event matchStarted(uint indexed _matchID, address indexed _playerX, address indexed _playerY);\n\n    // Event to notify an attack by a player on an opponent\n    event attackNotify(uint indexed _matchID ,address _attackerAddress, address _opponentAddress, uint _attackedRow, uint _attackedCol);\n\n    // Event to indicate the result of an attack\n    event attackResult(uint _matchID, uint8  _result,address _attackerAddress);\n\n    // Event to signal the end of the match and init verification of the winner board\n    event matchFinished(uint indexed _matchID,address _winnerAddr,address _loserAddr,string _cause);\n\n    // Event to notify an accusation made by a player against another player\n    event accusationNotify(uint indexed _matchID,address _accused,address _accuser);\n\n    // Event to notify the winner of the match\n    event winnerIs(uint indexed _matchID,address _winnerAddr, string _cause);\n\n\n    \n    //Array of matches\n    Battle[] public gamesArray;\n\n    // Count of active matches\n    uint public currentGames = 0;\n\n\n\n    function NewMatch(uint _boardSize, uint _numberOfShips) public validSize(_boardSize) {\n    // Create a new Battle instance\n    Battle memory newMatch;\n\n    // Set properties of the new match\n    newMatch.playerX = msg.sender;\n    newMatch.playerY = address(0);\n    newMatch.joinableMatch = true;\n    newMatch.startedMatch = false;\n    newMatch.boardSize = _boardSize;\n    newMatch.stake = 0;\n    newMatch.stakeProposer = address(0);\n    newMatch.stakeProposal = 0;\n    newMatch.merkleX = 0;\n    newMatch.merkleY = 0;\n    newMatch.stakeX = 0;\n    newMatch.stakeY = 0;\n    newMatch.NumShipsX = _numberOfShips;\n    newMatch.NumShipsY = _numberOfShips;\n    newMatch.fixedShipsNumber = _numberOfShips;\n    newMatch.timeoutForAccusation = 0;\n    newMatch.accusedOpponent = address(0);\n    newMatch.currentPlayerTurn = msg.sender;\n\n    // Push the new match to the gamesArray\n    gamesArray.push(newMatch);\n\n    // Increment the count of open games\n    currentGames++;\n\n    // Emit an event to indicate the creation of a new match\n    emit UintOutput(msg.sender, gamesArray.length-1);\n}\n\n\n\n \n    function JoinMatch(uint _matchID) validMatch(_matchID) public {\n\n        Battle storage matchIstance = gamesArray[_matchID];\n        require(currentGames > 0, \"No available matches!\");\n\n        uint returnIndex = _matchID;\n\n        require(matchIstance.playerX != address(0), \"No player in this match\");\n        require(matchIstance.playerY == address(0), \"Both players already joined\");\n        require(matchIstance.joinableMatch, \"Match not joinable\");\n        require(matchIstance.playerX != msg.sender, \"You are already in this match\");\n\n        matchIstance.joinableMatch = false;\n        matchIstance.playerY = msg.sender;\n        currentGames--;\n\n        emit playersJoined(\n            matchIstance.playerX,\n            matchIstance.playerY,\n            matchIstance.stakeProposal,\n            returnIndex,\n            matchIstance.boardSize,\n            matchIstance.NumShipsX\n        );\n    }\n\n  \n    function JoinRandom() public {\n        require(currentGames > 0, \"No available matches!\");\n\n        uint returnIndex = findJoinableMatch();\n\n        require(returnIndex < gamesArray.length, \"No available matches!\");\n\n        Battle storage matchedGame = gamesArray[returnIndex];\n        require(matchedGame.playerX != msg.sender, \"You are already in this match\");\n\n\n        matchedGame.playerY = msg.sender;\n        matchedGame.joinableMatch = false;\n        currentGames--;\n\n        emit playersJoined(\n            matchedGame.playerX,\n            matchedGame.playerY,\n            matchedGame.stakeProposal,\n            returnIndex,\n            matchedGame.boardSize,\n            matchedGame.NumShipsX\n        );\n    }\n\n\nfunction findJoinableMatch() private view returns (uint) {\n    bytes32 rand = randomValue(); // Get a random value.\n    uint remainingIndex = uint(rand) % currentGames + 1; // Convert it to a valid index within the range of active matches.\n\n    // Iterate through the match list to find a joinable match.\n    for (uint i = 0; i < gamesArray.length; i++) {\n        if (gamesArray[i].joinableMatch) { // Check if the current match is joinable.\n            if (remainingIndex == 1) { // If the remaining index is 1, we've found the desired match.\n                return i; // Return the index of the joinable match.\n            }\n            remainingIndex--; // Decrement the remaining index if the current match is not joinable.\n        }\n    }\n    return gamesArray.length; // No joinable match found, return the length of the match list.\n}\n\n\n    function proposeStake(uint _matchID, uint _stake) validMatch(_matchID) public {\n        Battle storage matchInstance = gamesArray[_matchID];\n        require(matchInstance.playerX == msg.sender || matchInstance.playerY == msg.sender, \"Unauthorized player\");\n\n        matchInstance.stakeProposal = _stake;\n        matchInstance.stakeProposer = msg.sender;\n\n        emit stakeProposal(_matchID, _stake, msg.sender);\n    }\n\n\n\n\n\n\n\n\n\n    /**\n    * @dev Accepts a stake for a match.\n    * @param _matchID The ID of the match for which the stake is being accepted.\n    * @notice This function allows players to commit their stakes for a match, provided certain conditions are met.\n    *         The match must exist, both players must have joined, and the sender must be one of the players.\n    *         The requester's address must be valid and not the same as the sender's.\n    *         The match's stake must not be set yet, and the temporary stake must be decided.\n    *         Upon successful stake acceptance, the match's stake is updated with the temporary stake.\n    *         An event is emitted to indicate the stake has been decided.\n    */\n    function acceptStake(uint _matchID) public validMatch(_matchID) onlyPlayer(_matchID) temporaryStakeSet(_matchID) {\n        \n\n        Battle storage matchIstance = gamesArray[_matchID];\n        require(matchIstance.stakeProposer != msg.sender, \"Cannot accept your own stake\");\n        matchIstance.stake = matchIstance.stakeProposal;\n\n        emit stakeAccepted(_matchID, matchIstance.stake);\n    }\n\n\n\n    /**\n    * @dev Send Ether to a specific match for the specified player.\n    * @param _matchID The ID of the match.\n    *                The match ID should be less than the total number of games (matchList.length).\n    * @notice This function allows players to send Ether to a specific match they are part of.\n    *         Players must be registered for the match and only one of the match's players can send Ether at a time.\n    *         Ether sent will be added to the player's balance for the match.\n    * @notice This function requires a non-zero stake of Ether to be sent.\n    * @notice Reverts if the match ID is invalid, players are not set for the match, or sender is not a player of the match.\n    * @param _matchID The ID of the match to send Ether to.\n    */\n    function payStake(uint _matchID) public payable validMatch(_matchID) onlyPlayer(_matchID) {\n\n        // Check if sent Ether stake is greater than 0\n        require(msg.value > 0, \"Eth is 0!\");\n\n        // Update the corresponding player's Ether stake\n        if (gamesArray[_matchID].playerX == msg.sender) {\n            gamesArray[_matchID].stakeX += msg.value; // Use \"+=\" to add the sent Ether to existing balance\n        } else {\n            gamesArray[_matchID].stakeY += msg.value; \n        }\n    }\n\n    /**\n        * @dev Allows a player to attack their opponent in the specified match.\n        * @param _matchID The ID of the match.\n        * @param _attackedRow The row of the attack.\n        * @param _attackedCol The column of the attack.\n        */\n    function attackOpponent(uint _matchID, uint256 _attackedRow, uint256 _attackedCol) public validMatch(_matchID) onlyPlayer(_matchID) {\n            \n            Battle storage matchIstance = gamesArray[_matchID];\n\n            // Check if it's the sender's turn to attack\n            require(matchIstance.currentPlayerTurn == msg.sender, \"Not your turn to attack\");\n\n            // Reset accused player and timeout\n            matchIstance.accusedOpponent = address(0);\n            matchIstance.timeoutForAccusation = 0;\n\n            address opponent = (matchIstance.playerX == msg.sender) ? matchIstance.playerY : matchIstance.playerX;\n\n            // Emit the attack event and update player turn\n            emit attackNotify(_matchID, msg.sender, opponent, _attackedRow, _attackedCol);\n            matchIstance.currentPlayerTurn = opponent;\n        }\n\n\n    /**\n    * @dev Records the provided merkle root for a player in a match, indicating readiness to start the match.\n    * @param _merkleroot The merkle root hash of the player's match data.\n    * @param _matchID The unique identifier of the match.\n    */\n    function registerMerkleRoot(bytes32 _merkleroot, uint _matchID) public validMatch(_matchID) onlyPlayer(_matchID) {\n\n        // Get the reference to the match data using the match ID\n        Battle storage matchData = gamesArray[_matchID];\n\n        // Update the appropriate player's merkle root based on the sender\n        if (msg.sender == matchData.playerX) {\n            matchData.merkleX = _merkleroot;\n        } else {\n            matchData.merkleY = _merkleroot;\n        }\n\n        // Check if both players have provided their merkle roots to start the match\n        if (matchData.merkleY != 0 && matchData.merkleX != 0) {\n\n            matchData.startedMatch = true;\n\n            // Emit an event indicating that the match has started\n            emit matchStarted(_matchID, matchData.playerX, matchData.playerY);\n        }\n    }\n\n\n/* \nhandles the submission of an attack proof for a specific match identified by _matchID. \nThe function first verifies that the match is valid, the sender is one of the players, and the match hasn't started yet. \nThen, it calculates a Merkle root based on the provided Merkle proof and compares it with the Merkle root of the attacking player. \nDepending on whether the Merkle roots match or not, the function processes the attack, updates ship counts, and handles cheating situations. \nFinally, it checks for match completion conditions and transfers rewards if applicable while mitigating reentrancy vulnerabilities.\n*/\n    function submitAttackProof(uint _matchID, uint8 _attackResult, bytes32 _attackHash, bytes32[] memory merkleProof) public validMatch(_matchID) onlyPlayer(_matchID) matchNotStarted(_matchID) {\n        // get the match instance form gamesArray\n        Battle storage matchInstance = gamesArray[_matchID];\n\n        // set the computed merkle root to provided attack hash\n        bytes32 computedMerkleRoot = _attackHash;\n\n        // flag to indicate if cheating is detected\n        bool cheaterDetected = false;\n\n        // addresses to store the winner and loser\n        address winner;\n        address loser;\n\n        // Calculate the computed Merkle root using the provided merkle proof\n        for (uint i = 0; i < merkleProof.length; i++) {\n            computedMerkleRoot = keccak256(abi.encodePacked(merkleProof[i] ^ computedMerkleRoot));\n        }\n\n        // Determine the player's Merkle root and the number of their remaining ships\n        uint256 playerNumShips;\n        bytes32 playerMerkleRoot;\n\n        // get player's ship count and merkle root \n        (playerNumShips, playerMerkleRoot) = getPlayerInfo(matchInstance, msg.sender);\n\n        // hash the player's Merkle root to compare with the computed root\n        playerMerkleRoot = keccak256(abi.encodePacked(playerMerkleRoot));\n        computedMerkleRoot = keccak256(abi.encodePacked(computedMerkleRoot));\n\n        // If m root ==  player's merkle root -> attack is valid\n        if (computedMerkleRoot == playerMerkleRoot) {\n            //emit attack result event\n            emit attackResult(_matchID, _attackResult, getOpponent(matchInstance, msg.sender));\n\n             // ship destruction and updates based on the attack result\n            if (_attackResult == 1) {\n                if (msg.sender == matchInstance.playerX) {\n                    matchInstance.NumShipsX--;\n                } else {\n                    matchInstance.NumShipsY--;\n                }\n            }\n        } else {\n            // get the winner and loser in case of cheating\n            (winner, loser) = getWinnerAndLoser(matchInstance, msg.sender);\n            // set metch status fo finished\n            matchInstance.startedMatch = false;\n\n            // emit match finished event with cheating msg\n            emit matchFinished(_matchID, winner, loser, \"CHEATING: Invalid attack proof!\");\n            cheaterDetected = true;\n        }\n\n        // check for match completion conditions and transfer rewards if applicable\n        if (matchInstance.NumShipsX <= 0 || matchInstance.NumShipsY <= 0) {\n            // determin winner sccording to ramaining ships\n            winner = (msg.sender == matchInstance.playerX) ? matchInstance.playerY : matchInstance.playerX;\n            \n            // set match as finished\n            matchInstance.startedMatch = false;\n\n            // emit match finished\n            emit matchFinished(_matchID, winner, msg.sender, \"No more ships left!\");\n        }\n\n        // reentrancy vuln mitigation with cheater set to false before transferring founds\n        // if try to attack explointing the flag, will not succeed as state change occurs \n        // before the external call to transfer()\n        /*\n        if (cheaterDetected && winner != address(0)) {\n            // Set the flag before the transfer\n            cheaterDetected = false; // Reset the flag after the transfer is complete\n            payable(winner).transfer(matchInstance.stake * 2);\n        }*/\n    }\n\n\n\nfunction getPlayerInfo(Battle storage matchInstance, address player) internal view returns (uint256, bytes32) {\n    if (player == matchInstance.playerX) {\n        return (matchInstance.NumShipsX, matchInstance.merkleX);\n    } else {\n        return (matchInstance.NumShipsY, matchInstance.merkleY);\n    }\n}\n\nfunction getOpponent(Battle storage matchInstance, address player) internal view returns (address) {\n    return (player == matchInstance.playerX) ? matchInstance.playerY : matchInstance.playerX;\n}\n\nfunction getWinnerAndLoser(Battle storage matchInstance, address cheater) internal view returns (address, address) {\n    if (cheater == matchInstance.playerX) {\n        return (matchInstance.playerY, matchInstance.playerX);\n    } else {\n        return (matchInstance.playerX, matchInstance.playerY);\n    }\n}\n\n\n\n\n\n\n\n\n\n\n\n\n\n\n\n\n\n    /**\n    * @dev Verify the opponent's board after the match is finished.\n    * @param _matchID The ID of the finished match.\n    * @param _cells The array representing the opponent's board cells.\n    * @notice This function allows a player to verify the opponent's board after a match is finished.\n    *         It checks if the board size matches the declared size and if the number of remaining ships\n    *         matches the declared number of ships. If cheating is detected, rewards are transferred.\n    * @dev Requires:\n    *         - The match ID must be valid and finished (according to modifiers).\n    *         - The sender must be a participant of the match.\n    * @dev Emits:\n    *         - A matchFinished event if cheating is detected and rewards are transferred.\n    *         - A matchFinished event if the verification is successful and rewards are transferred.\n    */\n    function verifyBoard(uint _matchID, int256[] memory _cells) public validMatch(_matchID) onlyPlayer(_matchID) {\n\n        Battle storage matchInstance = gamesArray[_matchID];\n        address winner;\n        address loser;\n        uint256 shipsNumber = 0;\n        bool cheaterDetected = false;\n\n        // Determine the winner and loser based on the player's remaining ships.\n        if (msg.sender == matchInstance.playerX && matchInstance.NumShipsY <= 0) {\n            winner = matchInstance.playerX;\n            loser = matchInstance.playerY;\n        } else if (msg.sender == matchInstance.playerY && matchInstance.NumShipsX <= 0) {\n            winner = matchInstance.playerY;\n            loser = matchInstance.playerX;\n        } else {\n            revert(\"Error: there is no winner!\");\n        }\n\n        shipsNumber = matchInstance.fixedShipsNumber;\n        uint256 declaredSize = matchInstance.boardSize;\n\n        // Check if the actual board size matches the declared size.\n        uint256 actualLength = _cells.length;\n        if (actualLength != declaredSize * declaredSize) {\n            cheaterDetected = true;\n            emit winnerIs(_matchID, loser, \"Opponent declared a different board size!\");\n        } else {\n            // Check if the number of remaining ships matches the declared number of ships.\n            uint shipCount = 0;\n            for (uint i = 0; i < _cells.length; i++) {\n                // Check if the cell contains a ship: >= 1 because hit ships are marked with 2.\n                if (_cells[i] >= 1) {\n                    shipCount++;\n                }\n            }\n\n            if (shipCount < shipsNumber) {\n                // Detected board cheat.\n                cheaterDetected = true;\n                emit winnerIs(_matchID, loser, \"Opponent declared a different number of ships!\");\n            } else {\n                // Winner is legitimate.\n                emit winnerIs(_matchID, winner, \"ETH transferred to your account!\");\n            }\n        }\n\n        // Mitigate reentrancy vulnerability using \"Checks-Effects-Interactions\" pattern.\n        if (cheaterDetected) {\n            payable(loser).transfer(matchInstance.stake * 2);\n        } else {\n            payable(winner).transfer(matchInstance.stake * 2);\n        }\n\n\n        //Match finished, remove it from the list\n        delete gamesArray[_matchID];\n    }\n\n\n\n    /**\n    * @dev Notifies the opponent to play, triggering a timeout event and potentially ending the match.\n    * @param _matchID The unique identifier of the match.\n    */\n    function accuseOpponent(uint _matchID) public validMatch(_matchID) onlyPlayer(_matchID) notAccused(_matchID) {\n        \n        Battle storage matchIstance = gamesArray[_matchID];\n        address accusedOpponent;\n\n        bool timeoutExceeded = false;\n        address winner;\n        address loser;\n\n        // Determine the accused opponent based on the sender\n        if (matchIstance.playerY == msg.sender) {\n            accusedOpponent = matchIstance.playerX;\n        } else {\n            accusedOpponent = matchIstance.playerY;\n        }\n\n        // Handle timeout scenario\n        if (matchIstance.timeoutForAccusation != 0) {\n            // Check if more than 5 blocks have passed since the notify was triggered\n            if (block.number >= matchIstance.timeoutForAccusation) {\n                // Determine the winner and transfer ETH accordingly\n\n                if (matchIstance.accusedOpponent == matchIstance.playerY) {\n                    winner = matchIstance.playerX;\n                    loser = matchIstance.playerY;\n                } else {\n                    winner = matchIstance.playerY;\n                    loser = matchIstance.playerX;\n                }\n\n                timeoutExceeded = true;\n\n                // End the match due to timeout\n                emit winnerIs(_matchID, winner, \"AFK timeout reached: match finished!\");\n            } else {\n                // Emit accusation notification\n                emit accusationNotify(_matchID, accusedOpponent, msg.sender);\n            }\n        } else {\n            // Set the timeout for accusation and record the accused opponent\n            matchIstance.timeoutForAccusation = block.number + 5;\n            matchIstance.accusedOpponent = accusedOpponent;\n\n            // Emit accusation notification\n            emit accusationNotify(_matchID, accusedOpponent, msg.sender);\n        }\n\n        if(timeoutExceeded && winner != address(0)){\n            // Transfer the stake to the accused opponent\n            payable(winner).transfer(matchIstance.stake * 2);\n        }\n    }\n\n\n   // ciao\n    function randomValue() private view returns (bytes32) {\n        // Utilizza l'hash del blocco corrente e il numero casuale della beacon chain\n        bytes32 randValue = keccak256(abi.encodePacked(blockhash(block.number), block.timestamp, block.basefee));\n        return randValue;\n    }\n}\n\n\n",
  "sourcePath": "/home/af/Scrivania/BattleshipR-M/contracts/Battleship.sol",
  "compiler": {
    "name": "solc",
    "version": "0.8.19+commit.7dd6d404.Emscripten.clang"
  },
  "schemaVersion": "3.4.13",
  "updatedAt": "2024-02-08T10:54:22.479Z",
  "networkType": "ethereum",
  "devdoc": {
    "kind": "dev",
    "methods": {
      "acceptStake(uint256)": {
        "details": "Accepts a stake for a match.",
        "params": {
          "_matchID": "The ID of the match for which the stake is being accepted."
        }
      },
      "accuseOpponent(uint256)": {
        "details": "Notifies the opponent to play, triggering a timeout event and potentially ending the match.",
        "params": {
          "_matchID": "The unique identifier of the match."
        }
      },
      "attackOpponent(uint256,uint256,uint256)": {
        "details": "Allows a player to attack their opponent in the specified match.",
        "params": {
          "_attackedCol": "The column of the attack.",
          "_attackedRow": "The row of the attack.",
          "_matchID": "The ID of the match."
        }
      },
      "payStake(uint256)": {
        "details": "Send Ether to a specific match for the specified player.",
        "params": {
          "_matchID": "The ID of the match to send Ether to."
        }
      },
      "registerMerkleRoot(bytes32,uint256)": {
        "details": "Records the provided merkle root for a player in a match, indicating readiness to start the match.",
        "params": {
          "_matchID": "The unique identifier of the match.",
          "_merkleroot": "The merkle root hash of the player's match data."
        }
      },
      "verifyBoard(uint256,int256[])": {
        "details": "Verify the opponent's board after the match is finished.Requires:         - The match ID must be valid and finished (according to modifiers).         - The sender must be a participant of the match.Emits:         - A matchFinished event if cheating is detected and rewards are transferred.         - A matchFinished event if the verification is successful and rewards are transferred.",
        "params": {
          "_cells": "The array representing the opponent's board cells.",
          "_matchID": "The ID of the finished match."
        }
      }
    },
    "version": 1
  },
  "userdoc": {
    "kind": "user",
    "methods": {
      "acceptStake(uint256)": {
        "notice": "This function allows players to commit their stakes for a match, provided certain conditions are met.         The match must exist, both players must have joined, and the sender must be one of the players.         The requester's address must be valid and not the same as the sender's.         The match's stake must not be set yet, and the temporary stake must be decided.         Upon successful stake acceptance, the match's stake is updated with the temporary stake.         An event is emitted to indicate the stake has been decided."
      },
      "payStake(uint256)": {
        "notice": "This function allows players to send Ether to a specific match they are part of.         Players must be registered for the match and only one of the match's players can send Ether at a time.         Ether sent will be added to the player's balance for the match.This function requires a non-zero stake of Ether to be sent.Reverts if the match ID is invalid, players are not set for the match, or sender is not a player of the match."
      },
      "verifyBoard(uint256,int256[])": {
        "notice": "This function allows a player to verify the opponent's board after a match is finished.         It checks if the board size matches the declared size and if the number of remaining ships         matches the declared number of ships. If cheating is detected, rewards are transferred."
      }
    },
    "version": 1
  }
}